:020000020000FC
:080000000C9428000C94D300BD
:04000C000C948C01C3
:10004C000C94F900002705BD03BF0FBD02BF04BD12
:10005C000CBD0DBD00E0D02E0FE50DBF04E00EBFB2
:10006C008A98929801E005BF00E40BBF02E908BF33
:10007C0002E809BF0EE70CBF01E403BD8C9A8D9A10
:10008C001AEF1ABD10E01BBD18BD19BD0FEF04BB54
:10009C000FEF07BB13E0012E112E212E312E412E16
:1000AC00512E612E08E0702E88249924AA240AEF80
:1000BC00602F789408E0B02EC72C00E805BB072D04
:1000CC0008BB00E00E94BD0008BBC69458F4CD1CD0
:1000DC00062D0E94C2010B2D08BB00E00E94BD0042
:1000EC0008BBB694C69458F4CD1C052D0E94C201D1
:1000FC000B2D08BB00E00E94BD0008BBB694C69453
:10010C0058F4CD1C042D0E94C2010B2D08BB00E03D
:10011C000E94BD0008BBB694032D0E94C2010B2D9A
:10012C0008BB00E00E94BD0008BBB69419F2022D7A
:10013C000E94C2010B2D08BB00E00E94BD0008BB51
:10014C00B694A1F0012D0E94C2010B2D08BB00E05A
:10015C000E94BD0008BBB69449F0002D0E94C2015C
:10016C000B2D08BB00E00E94BD0008BBA3CF86E1AD
:10017C0090E00197F1F7D9F70895000F1FB710FF22
:10018C000895069506950395089506951FB710FFDB
:10019C000895000F000F006808950F930FB70F9389
:1001AC00829B0C94E00071E00BE003BF0F910FBF3A
:1001BC000F911895002702BF72E000E00BBF9694D8
:1001CC00881C272DA02DB12DC22DD32DE42DF52D5E
:1001DC00E62C03EA0FBD09E10EBD09E005BD0F9148
:1001EC000FBF0F9118950F930FB70F9371FD0C94D0
:1001FC003A0101E0800E00E0901EA01E002D0E942E
:10020C00C300002E033061F5012D0E94C300102E97
:10021C00033031F5022D0E94C300202E033001F56E
:10022C00032D0E94C300302E0330D1F473FC76945E
:10023C00042D0E94C300402E033091F472FC76947E
:10024C00052D0E94C300502E033051F471FC76949E
:10025C00062D0E94C300602E033011F40C94000094
:10026C000F910FBF0F911895002D0E94CB00002EFF
:10027C00043889F003301FB711FF0C94880173FE0A
:10028C000C948801012D0330E9F5022D0330D1F5D2
:10029C00032D0330B9F5012D0E94CB00102E04382C
:1002AC0011F00C948801022D0E94CB00202E0438F2
:1002BC0011F00C948801032D0E94CB00302E0438D1
:1002CC0011F00C948801042D0E94CB00402E0438B0
:1002DC0031F00330B9F472FC770C0C948801052DC5
:1002EC000E94CB00502E043831F0033059F471FCCD
:1002FC00770C0C948801062D0E94CB00602E0330E5
:10030C0009F4770C0F910FBF0F9118951F930F9352
:10031C000FB70F9310E008B704FD1CBD00E108BF38
:10032C006030B9F000E0032B042B052B51F408B519
:10033C0019B5039508BD6A95382D492D5A2D0C9485
:10034C00AA013150404050400F910FBF0F911F91A7
:10035C001895722E0A2E1B2E2C2E3D2E4E2E5F2EF5
:10036C006E2CF894002703BF05BD0FBD0EBD0F9179
:10037C000FBF0F911F911895033019F41FE315BB94
:10038C000895063019F416E015BB08950C3019F4D5
:10039C001BE515BB0895083119F41FE415BB08952E
:1003AC00003319F416E615BB0895003619F41DE652
:1003BC0015BB0895003C19F41DE715BB08950132D7
:1003CC0019F417E015BB0895023419F41FE715BB97
:0A03DC00089504381FE615BB0895CC
:00000001FF
