:020000020000FC
:0200000027C017
:040004000C94C9008F
:04000C000C9415013A
:10004C000C94D80000E005BD00E003BF002702BF00
:10005C0004BD00E0D02E0FE50DBF04E00EBF13E091
:10006C008A98929801E005BF00E40BBF03E008BF3B
:10007C0002E009BF0EE70CBF0EE703BD0FEF04BB98
:10008C000FEF07BB012E112E212E312E412E512E9A
:10009C00612E08E0702E88249924AA24789408E014
:1000AC00B02EC72C00E805BB072D08BB00E00E9452
:1000BC00B20008BBC69458F4CD1C062D0E948E01CC
:1000CC000B2D08BB00E00E94B20008BBB694C6948E
:1000DC0058F4CD1C052D0E948E010B2D08BB00E0A1
:1000EC000E94B20008BBB694C69458F4CD1C042DE3
:1000FC000E948E010B2D08BB00E00E94B20008BBD1
:10010C00B694032D0E948E010B2D08BB00E00E94BB
:10011C00B20008BBB69419F2022D0E948E010B2D71
:10012C0008BB00E00E94B20008BBB694A1F0012D00
:10013C000E948E010B2D08BB00E00E94B20008BB90
:10014C00B69449F0002D0E948E010B2D08BB00E0E7
:10015C000E94B20008BBA3CF86E190E00197F1F7B3
:10016C002A95D1F70895000F1FB710FF0895069533
:10017C0006950395089506951FB710FF0895000F77
:10018C00000F00680895829B0C94CF000BE003BF16
:10019C00189500E003BF00EC08BF00E809BF0CE0B5
:1001AC0005BD18950F930FB70F9301E0800E00E07B
:1001BC00901EA01E002D0E94B900002E033059F590
:1001CC00012D0E94B900102E033029F5022D0E943A
:1001DC00B900202E0330F9F4032D0E94B900302E03
:1001EC000330C9F473FC7694042D0E94B900402EA0
:1001FC00033089F472FC7694052D0E94B900502EC0
:10020C00033049F471FC7694062D0E94B900602EDF
:10021C0003300E9400000F910FBF0F9118950F93A0
:10022C000FB70F93002D0E94C100002E04381FB78A
:10023C0011FF0C948A01072D083069F4032D03304B
:10024C0051F4022D033039F4012D033021F403E075
:10025C00002E0C940000012D0E94C100102E0438B9
:10026C001FB711FF0C948A01072D083051F4032D90
:10027C00033039F4022D033021F403E0102E0C94DA
:10028C008A01022D0E94C100202E0438E9F5072DA9
:10029C00083039F4032D033021F403E0202E0C94A4
:1002AC008A01032D0E94C100302E043869F573FEBB
:1002BC000C947301770C03E0302E0C948A01042DFE
:1002CC000E94C100402E0438F9F473FE0C947301A3
:1002DC00770C03E0402E0C948A01052D0E94C1007E
:1002EC00502E043889F472FE0C948101770C03E0D3
:1002FC00502E0C948A01062D0E94C100602E0438E9
:10030C0019F4770C03E0602E0F910FBF0F91189525
:10031C00033019F41FE315BB0895063019F416E0E9
:10032C0015BB08950C3019F41BE515BB0895083165
:10033C0019F41FE415BB0895003319F416E615BB28
:10034C000895003619F41DE615BB0895003C19F408
:10035C001DE715BB0895013219F417E015BB08957C
:10036C00023419F41FE715BB089504381FE615BBBA
:02037C000895E2
:00000001FF
