:020000020000FC
:0200000027C017
:040004000C94B800A0
:10004C000C94C20000E0D02E0FE50DBF04E00EBFF3
:10005C0013E08A98929801E005BF00E40BBF03E01F
:10006C0008BF02E009BF02E00CBF0FEF04BB0FEFAB
:10007C0007BB012E112E212E312E412E512E612E19
:10008C0008E0702E88249924AA24789408E0B02ED5
:10009C00C72C00E805BB072D08BB00E00E94A90097
:1000AC0008BBC69458F4CD1C062D0E9402010B2DE2
:1000BC0008BB00E00E94A90008BBB694C69458F493
:1000CC00CD1C052D0E9402010B2D08BB00E00E94E7
:1000DC00A90008BBB694C69458F4CD1C042D0E94FC
:1000EC0002010B2D08BB00E00E94A90008BBB694CE
:1000FC00032D0E9402010B2D08BB00E00E94A900F9
:10010C0008BBB69419F2022D0E9402010B2D08BBFC
:10011C0000E00E94A90008BBB694A1F0012D0E943A
:10012C0002010B2D08BB00E00E94A90008BBB6948D
:10013C0049F0002D0E9402010B2D08BB00E00E942B
:10014C00A90008BBA3CF86E190E00197F1F72A95AF
:10015C00D1F70895000F1FB710FF08950695069567
:10016C0003950895829B0C94C000002702BF0AE4FB
:10017C0003BF189500E018950F930FB70F9301E08C
:10018C00800E00E0901EA01E002D0E94B000002EDC
:10019C00033071F5012D0E94B000102E033041F593
:1001AC00022D0E94B000202E033011F5032D0E9469
:1001BC00B000302E0330E1F473FC7694042D0E94D1
:1001CC00B000402E0330A1F472FC7694052D0E94F1
:1001DC00B000502E033061F471FC7694062D0E9411
:1001EC00B000602E70FC08E0702E772488249924CF
:1001FC000F910FBF0F911895033019F41FE315BB26
:10020C000895063019F416E015BB08950C3019F456
:10021C001BE515BB0895083119F41FE415BB0895AF
:10022C00003319F416E615BB0895003619F41DE6D3
:10023C0015BB0895003C19F41DE715BB0895013258
:10024C0019F417E015BB0895023419F41FE715BB18
:0A025C00089504381FE615BB08954D
:00000001FF
