:020000020000FC
:0200000027C017
:040004000C94CE008A
:04000C000C947D01D2
:10004C000C94E800002705BD03BF0FBD02BF04BD23
:10005C000CBD0DBD00E0D02E0FE50DBF04E00EBFB2
:10006C0013E08A98929801E005BF00E40BBF02E808
:10007C0008BF02E809BF0EE70CBF08E003BD8D9A6C
:10008C00959A0FEF04BB0FEF07BB012E112E212EFB
:10009C00312E412E512E612E08E0702E8824992489
:1000AC00AA240AEF602F789408E0B02EC72C00E841
:1000BC0005BB072D08BB00E00E94B70008BBC69427
:1000CC0058F4CD1C062D0E949C010B2D08BB00E0A2
:1000DC000E94B70008BBB694C69458F4CD1C052DED
:1000EC000E949C010B2D08BB00E00E94B70008BBCE
:1000FC00B694C69458F4CD1C042D0E949C010B2D73
:10010C0008BB00E00E94B70008BBB694032D0E9408
:10011C009C010B2D08BB00E00E94B70008BBB694F5
:10012C0019F2022D0E949C010B2D08BB00E00E94CD
:10013C00B70008BBB694A1F0012D0E949C010B2DB9
:10014C0008BB00E00E94B70008BBB69449F0002D34
:10015C000E949C010B2D08BB00E00E94B70008BB5D
:10016C00A3CF86E190E00197F1F72A95D1F7089596
:10017C00000F1FB710FF0895069506950395089577
:10018C0006951FB710FF0895000F000F0068089523
:10019C000F930FB70F93829B0C94DB0071E00BE075
:1001AC0003BF0F910FBF0F911895002702BF72E08C
:1001BC0000E00BBF0BE90FBD09E005BD0F910FBFB0
:1001CC000F9118950F930FB70F9371FD0C94290194
:1001DC0001E0800E00E0901EA01E002D0E94BE00CB
:1001EC00002E033061F5012D0E94BE00102E03304D
:1001FC0031F5022D0E94BE00202E033001F5032D97
:10020C000E94BE00302E0330D1F473FC7694042D82
:10021C000E94BE00402E033091F472FC7694052DA2
:10022C000E94BE00502E033051F471FC7694062DC2
:10023C000E94BE00602E033011F40C9400000F914C
:10024C000FBF0F911895002D0E94C600002E043888
:10025C0099F003301FB711FF0C94790173FE0C94C5
:10026C007901012D0330F9F5022D0330E1F5032D51
:10027C000330C9F50C940000012D0E94C600102E0D
:10028C00043811F00C947901022D0E94C600202E26
:10029C00043811F00C947901032D0E94C600302E05
:1002AC00043811F00C947901042D0E94C600402EE4
:1002BC00043831F00330B9F472FC770C0C947901EA
:1002CC00052D0E94C600502E043831F0033059F42D
:1002DC0071FC770C0C947901062D0E94C600602EDF
:1002EC00033009F4770C0F910FBF0F9118951F93E2
:1002FC000F930FB70F936030A1F000E0032B042B8A
:10030C00052B61F40AB51BB50A5F1E4F0ABD1BBD58
:10031C006A95382D492D5A2D0C9497013150404037
:10032C0050400F910FBF0F911F911895033019F486
:10033C001FE315BB0895063019F416E015BB08959C
:10034C000C3019F41BE515BB0895083119F41FE4A2
:10035C0015BB0895003319F416E615BB0895003645
:10036C0019F41DE615BB0895003C19F41DE715BBE7
:10037C000895013219F417E015BB0895023419F4ED
:0E038C001FE715BB089504381FE615BB089542
:00000001FF
