:020000020000FC
:0200000027C017
:040004000C94CC008C
:04000C000C947801D7
:10004C000C94E300002705BD03BF0FBD02BF04BD28
:10005C000CBD0DBD00E0D02E0FE50DBF04E00EBFB2
:10006C0013E08A98929801E005BF00E40BBF02E808
:10007C0008BF01E009BF0EE70CBF08E003BD8D9A75
:10008C00959A0FEF04BB0FEF07BB012E112E212EFB
:10009C00312E412E512E612E08E0702E8824992489
:1000AC00AA24789408E0B02EC72C00E805BB072DD5
:1000BC0008BB00E00E94B50008BBC69458F4CD1CE8
:1000CC00062D0E949F010B2D08BB00E00E94B5007D
:1000DC0008BBB694C69458F4CD1C052D0E949F0104
:1000EC000B2D08BB00E00E94B50008BBB694C6946B
:1000FC0058F4CD1C042D0E949F010B2D08BB00E071
:10010C000E94B50008BBB694032D0E949F010B2DD5
:10011C0008BB00E00E94B50008BBB69419F2022D92
:10012C000E949F010B2D08BB00E00E94B50008BB8C
:10013C00B694A1F0012D0E949F010B2D08BB00E08D
:10014C000E94B50008BBB69449F0002D0E949F0197
:10015C000B2D08BB00E00E94B50008BBA3CF86E1C5
:10016C0090E00197F1F72A95D1F70895000F1FB78A
:10017C0010FF0895069506950395089506951FB7EB
:10018C0010FF0895000F000F006808950F930FB72C
:10019C000F93829B0C94D60071E00BE003BF189573
:1001AC00002702BF72E000E00BBF0BE90FBD09E0B6
:1001BC0005BD0F910FBF0F9118950F930FB70F93AC
:1001CC0071FD0C94240101E0800E00E0901EA01E35
:1001DC00002D0E94BC00002E033061F5012D0E9401
:1001EC00BC00102E033031F5022D0E94BC00202ED5
:1001FC00033001F5032D0E94BC00302E0330D1F4E6
:10020C0073FC7694042D0E94BC00402E033091F4B4
:10021C0072FC7694052D0E94BC00502E033051F4D4
:10022C0071FC7694062D0E94BC00602E033011F4F4
:10023C000C9400000F910FBF0F911895002D0E9488
:10024C00C400002E043899F003301FB711FF0C9432
:10025C00740173FE0C947401012D0330F9F5022D19
:10026C000330E1F5032D0330C9F50C940000012D8A
:10027C000E94C400102E043811F00C947401022D4D
:10028C000E94C400202E043811F00C947401032D2C
:10029C000E94C400302E043811F00C947401042D0B
:1002AC000E94C400402E043831F00330B9F472FCC3
:1002BC00770C0C947401052D0E94C400502E043848
:1002CC0031F0033059F471FC770C0C947401062D49
:1002DC000E94C400602E033009F4770C0F910FBFFD
:1002EC000F9118951F930F930FB70F936030C9F0B0
:1002FC0000E0032B042B052B61F40AB51BB50A5F38
:10030C001E4F0ABD1BBD6A95382D492D5A2D0C94D4
:10031C0092013150404050400F910FBF0F911F91EF
:10032C0018950AEF602F10E01CBF0F910FBF0F91B3
:10033C001895033019F41FE315BB0895063019F412
:10034C0016E015BB08950C3019F41BE515BB089588
:10035C00083119F41FE415BB0895003319F416E69F
:10036C0015BB0895003619F41DE615BB0895003C25
:10037C0019F41DE715BB0895013219F417E015BBEC
:10038C000895023419F41FE715BB089504381FE6CD
:04039C0015BB0895F0
:00000001FF
