:020000020000FC
:0200000007C037
:10000C000C942E000FE50DBF04E00EBF0AEF602F1D
:10001C000AEF802E02E0902E00E0A02E382D492D04
:10002C005A2D08E003BD00EC08BF00E809BF09E049
:10003C0005BD789408E007BB10E01CBF0AE603BFBF
:10004C00FFCF82E090E00197F1F72A95D1F7089560
:10005C000F930FB70F936030A9F000E0032B042B24
:10006C00052B49F40CB703950CBF6A95382D492D17
:10007C005A2D0C9444003150404050400F910FBF0A
:10008C000F9118950AEF602F10E01CBF0F910FBF56
:04009C000F91189513
:00000001FF
